:02000002D0002C
:1040000000400D0084510D00000006000C00050169
:084010000401BD0B00000000DB
:04401800384F0D0010
:10401C0009480A49884208B505D0094A824202D0AB
:10402C00121A00F041FF0748074A0021121A00F04B
:10403C0049FF014808BD00BFC8E50320F4500D003E
:10404C0030E6032030E60320F0E7032070B5074E7E
:10405C00074C00F07FFBA41BA4080025A54200D14F
:10406C0070BD56F8043B98470135F7E7C0500D007A
:10407C00E4500D0000F01BB808B500F023F8BDE8C3
:10408C00084000F029BB00F0EBB900F0F1B9007862
:10409C00B0FA80F04009704701230370704710B5E7
:1040AC000446006808B100F0E3F9204610BD08B5DD
:1040BC000121062000F062FEBDE808400021072027
:1040CC0000F05CBE08B5072000F082FE064B011E16
:1040DC0014BF012200221A70BDE8084018BF01214C
:1040EC00062000F05CBE00BF40E6032038B50A4C49
:1040FC000A4BA360002503202560A580A57100F064
:10410C0023F90749074A204600F0B6FE294601204C
:10411C00BDE8384000F020B934E603200000FFFF72
:10412C00AB400D0030E6032008B5024B1B689B68C2
:10413C00019308BD6802030008B5024B1B68DB68DD
:10414C00019308BD6802030008B5024B1B689B680D
:10415C00019308BD2C02030008B5024B1B68DB68F9
:10416C00019308BD2C02030008B5024B1B681B69A8
:10417C00019308BD2C02030008B5024B1B685B6958
:10418C00019308BD2C02030008B5024B1B685B6849
:10419C00019308BD1802030008B5024B1B685B694C
:1041AC00019308BD1802030008B5024B1B685B6C39
:1041BC00019308BD4802030008B5024B1B689B6CB9
:1041CC00019308BD4802030008B5024B1B685B69EC
:1041DC00019308BD6402030008B5024B1B681B6801
:1041EC00019308BD3C02030008B5024B1B68DB6859
:1041FC00019308BD3C02030008B5024B1B681B6908
:10420C00019308BD3C02030008B5024B1B685B69B7
:10421C00019308BD3C02030008B5024B1B689B6967
:10422C00019308BD3C02030008B5024B1B68DB6917
:10423C00019308BD3C02030008B5024B1B681B6AC6
:10424C00019308BD3C02030008B5024B1B689B6A36
:10425C00019308BD3C02030008B5024B1B681B6AA6
:10426C00019308BD2802030008B5024B1B685B6A6A
:10427C00019308BD2802030008B5024B1B689B6A1A
:10428C00019308BD2802030008B5024B1B68DB6ACA
:10429C00019308BD2802030008B5024B1B681B6B79
:1042AC00019308BD2802030008B5024B1B685B6B29
:1042BC00019308BD2802030008B5024B1B681B6C58
:1042CC00019308BD2802030008B5024B1B68DB698B
:1042DC00019308BD3002030008B5024B1B681B6A32
:1042EC00019308BD3002030008B5024B1B681B6824
:1042FC00019308BD4C02030008B5024B1B681B69F7
:10430C00019308BD4C02030008B5024B1B685B69A6
:10431C00019308BD4C02030008B5024B1B689B6956
:10432C00019308BD4C02030008B5024B1B68DB6906
:10433C00019308BD4C02030008B5024B1B681B6AB5
:10434C00019308BD4C02030008B5024B1B685B6867
:10435C00019308BD2002030008B5024B1B68DB6A01
:10436C00019308BD2002030008B5034B1B68D3F86A
:10437C008830019308BD00002002030008B5034BF0
:10438C001B68D3F89430019308BD00002002030091
:10439C0008B5024B1B685B68019308BD4002030023
:1043AC0008B5024B1B689B68019308BD40020300D3
:1043BC0008B5024B1B68DB68019308BD4002030083
:1043CC0008B5024B1B681B69019308BD4002030032
:1043DC0008B5024B1B685B69019308BD40020300E2
:1043EC0008B5024B1B689B69019308BD4002030092
:1043FC0008B5024B1B68DB69019308BD4002030042
:10440C0008B5024B1B681B6A019308BD40020300F0
:10441C0008B5024B1B681B6B019308BD40020300DF
:10442C0008B5024B1B685B6B019308BD400203008F
:10443C0008B5024B1B681B6C019308BD40020300BE
:10444C0008B5024B1B685B6C019308BD400203006E
:10445C0008B5024B1B68DB6B019308BD44020300DB
:10446C0008B5024B1B681B68019308BD1C020300B6
:10447C0008B5024B1B685B68019308BD1C02030066
:10448C0008B5024B1B685B6C019308BD1C02030052
:10449C00002240681146FFF7B3BF00224068114666
:1044AC00FFF7BEBF40680022FFF7B2BF4068002292
:1044BC0081F00101FFF79CBF002340681A461946A2
:1044CC00FFF78EBF002340681A461946FFF780BFDE
:1044DC00002240681146FFF773BF00224068114666
:1044EC00FFF75EBF406800220221FFF761BF002387
:1044FC0040681A46FFF74CBF024B03225A60024A2F
:10450C001A60704744E60320544F0D0010B5044662
:10451C0008462170FFF7D8FE00236360204610BDCB
:10452C0010B5094B094C022200201A60084B206080
:10453C00A080A071A360FFF707FF2046054A06493B
:10454C00BDE8104000F098BC58E603204CE6032070
:10455C000000FFFF30E60320AB400D0010B5044611
:10456C00006808B1FFF728FE204610BD10B583681F
:10457C00044613B1032201469847204610BD0000A3
:10458C0010B5064C002320462360FFF70DFE204695
:10459C00034A0449BDE8104000F06EBC5CE6032001
:1045AC0030E6032069450D00F8B506460D468F1818
:1045BC000024BD420CD0336815F8011B9B683046B3
:1045CC009847031E01DB1C44F3E7002C08BF1C4674
:1045DC002046F8BD13B50446084659B1019100F0C8
:1045EC009DFC23680199DB680246204602B0BDE8B9
:1045FC001040184702B010BD03689B68184730B5CF
:10460C008BB000238DF82430012A98BF0A2209AC04
:10461C000D46B1FBF2F101FB125303F0FF03092B22
:10462C0094BF30333733DBB2AA4204F8013DEFD9E3
:10463C002146FFF7CFFF0BB030BD002340681A4670
:10464C001946FFF7C5BE0000014B024A1A607047BD
:10465C0060E60320884F0D00024B1A68024B1A606B
:10466C00704700BFC8E5032064E6032010B504467C
:10467C00FFF77CFF204610BD0348044A0449002381
:10468C00836000F0F9BB00BF68E6032030E603202E
:10469C0079460D00014B1860704700BFCCE5032034
:1046AC0008B50B4B43B100F057F903681B699847E9
:1046BC00002801DDAFF30080064B43B100F0CAF9CE
:1046CC0003681B699847002801DDAFF3008008BD23
:1046DC00000000000000000008B5FFF7E1FFFFF745
:1046EC005BFD014B186008BDD4E703200248034A68
:1046FC000349121A00F0D8BB00F4032004F4032081
:10470C00F0500D0007B5002300931A466FF07701A7
:10471C00FFF734FE03B05DF804FB000007B54388D7
:10472C000A2B08D0502B0BD1094B1B684BB103B093
:10473C005DF804EB1847FFF7E5FF03B05DF804FBE9
:10474C00002300931A466FF07701FFF717FEF4E78A
:10475C007CE6032038B5124C1248134D0021FFF7AC
:10476C008FFE2368AB42114B0CBF012200221A7042
:10477C0002D0FFF7BBFF2560FFF706FD044600F0F3
:10478C00A9FB0B4B13B12046AFF300800021084866
:10479C00FFF75EFEBDE8384006480021FFF7E4BD98
:1047AC0000F40320A1460D001E1C279A78E6032076
:1047BC000000000029470D00704710B51821044671
:1047CC0000F05FFB204610BDF0B5037D062B8DB0CD
:1047DC000E4600F104074FF0000412D000F108055A
:1047EC0015F8011D0A223046FFF709FFAF420444B9
:1047FC0019D0002CF4D02E213046FFF7FDFE0444D6
:10480C00EEE72F236A4639460A208DF80040FFF761
:10481C00DBFC684600F082FB33680246DB686946C5
:10482C0030469847044620460DB0F0BD10B5054BF8
:10483C000446112240F8043B002100F043FB2046C3
:10484C0010BD00BFB04F0D000346074A10B543F82A
:10485C00042B01F1100251F8044B43F8044B914224
:10486C00F9D10A781A7010BDB04F0D0010B59DF833
:10487C00084044EA032343EA024242EA016104236A
:10488C004160037510BD000013B5054B0360CB7878
:10489C0000938B784A780978FFF7E8FF02B010BDD7
:1048AC00B04F0D0041747047704708B50021007C73
:1048BC00FFF732FD40EAE07008BD08B50121007C2D
:1048CC00FFF72AFD40EAE07008BD08B5007CFFF751
:1048DC001BFD20EAE07008BD08B5007CFFF70CFD5D
:1048EC0020EAE07008BD13B50446007C0191FFF787
:1048FC000BFD0028019901DC607C20B1207CFFF7C6
:10490C0013FD20EAE07002B010BD007CFFF714BD6F
:10491C0010B51421044600F0B4FA204610BD000076
:10492C0010B54FF47A73044608460021C4E901130C
:10493C00044B23600123207463741146FFF7D4FCED
:10494C00204610BDC44F0D0010B5142204460021A2
:10495C0000F0B8FA204610BD10B5104C88B003A872
:10496C00FFF7F2FF2178BFF35B8F11F0010111D13A
:10497C0020460191FFF78BFB019958B103AA084817
:10498C00FFF7CEFF2046FFF787FB064A064904488F
:10499C0000F072FA024808B010BD00BF80E6032098
:1049AC0084E6032030E60320B5480D0070474174BF
:1049BC00704708B5007CFFF747FC20EAE07008BDA3
:1049CC0008B5007CFFF718FC20EAE07008BD08B5BC
:1049DC00007CFFF721FC40EAE07008BD08B5007CC4
:1049EC00FFF712FC40EAE07008BD007CFFF71CBC2E
:1049FC0037B5457C04462DB1207C03B0BDE8304072
:104A0C00FFF7F2BB007C0191FFF71EFC0028019917
:104A1C00F2DC284603B030BD10B51421044600F07A
:104A2C0030FA204610BD000010B54FF0000C0446C3
:104A3C00084611464FF47A72C4E901C2044A226056
:104A4C000122207462741A46FFF7C6FB204610BD83
:104A5C00F44F0D0013B50E4C2178BFF35B8F11F0A2
:104A6C00010112D120460191FFF711FB019960B1B0
:104A7C00084A094B0948FFF7D7FF2046FFF70CFB04
:104A8C00074A0849054800F0F7F9044802B010BD80
:104A9C0098E603209CE6032020E70320A4E70320EC
:104AAC0030E60320B9490D007047F8B506461546A7
:104ABC000C468F18BC4206D0336814F8011B9B6857
:104ACC0030469847F6E72846F8BD007C0022FFF7F1
:104ADC00C3BB007C0021FFF7C7BB007C0021FFF7A4
:104AEC00CBBB007C0021FFF7CFBB007C0021FFF784
:104AFC00D3BB10B51421044600F0C3F9204610BDF9
:104B0C0010B54FF47A73044608460021C4E901132A
:104B1C00034B236020741146FFF7CEFB204610BDDB
:104B2C0024500D00002240681146FFF749BC0022BA
:104B3C0040681146FFF764BC002240681146FFF73D
:104B4C006FBC40680022FFF763BC4068002281F014
:104B5C000101FFF74DBC002340681A461946FFF7C8
:104B6C003FBC002240681146FFF71ABC4068002287
:104B7C000221FFF71DBC002340681A46FFF708BC52
:104B8C00024B04225A60024A1A607047B8E70320AD
:104B9C004C500D00002340681A46FFF7F9BB4068E3
:104BAC0000220221FFF704BC002240681146FFF7E7
:104BBC00F7BB002240681146FFF702BC0023406897
:104BCC001A461946FFF704BC002340681A461946DA
:104BDC00FFF706BC40680021FFF72ABC40680021A3
:104BEC00FFF72EBC4068002281F00101FFF700BCEA
:104BFC0040680022FFF70CBC002240681146FFF70A
:104C0C000FBC002240681146FFF7FABB2DE9F043B8
:104C1C00002495B016460D460746FFF707FE2146C1
:104C2C0018220EA8009400F04DF94023CDE90C3465
:104C3C0021466B460CAA3046FFF77EFA0446002844
:104C4C004CD1024601216868FFF7BAFB022180466D
:104C5C0022466868FFF7B4FB009E81462146002E71
:104C6C003CD000293AD17368022B03D00A2B11D007
:104C7C00F669F4E7B8F1000F0AD0716906A804319F
:104C8C0007ADFFF701FE0FCD3C1D0FC42B68237041
:104C9C004146EDE7B9F1000F01D14946E8E77469E7
:104CAC00102201A800F00EF906238DF8143001AD86
:104CBC0004F108031834186859682A4603C20833EB
:104CCC00A3421546F7D101A906A807ADFFF7BCFD15
:104CDC000FCD3C1D0FC42B682370DEE70098FFF747
:104CEC0023FA384615B0BDE8F0830000024B034AA6
:104CFC001A6000225A607047C0E7032088500D00EC
:104D0C00232813B502D9002002B010BDA0F10B036B
:104D1C00022B1AD8174C2178BFF35B8F11F00101CD
:104D2C000BD120460191FFF7B2F9019928B1124835
:104D3C00FFF7ECFB2046FFF7AFF90F4B1878FFF7A6
:104D4C00CBFA0028DFD10120DEE7012809D800F0DA
:104D5C006BF80021007CFFF7A7FA80F00100C0B2CD
:104D6C00D2E709380128EED8FFF774FE007CFFF774
:104D7C0063FAF2E7C8E70320CCE70320232838B511
:104D8C0004460D460AD8FF2908D0FFF7B9FF28B111
:104D9C0029462046BDE83840FFF7D6B938BD38B5AE
:104DAC0004460D46FFF7D8F9FF2810D0062804D882
:104DBC004D2323FA00F0C30709D42046FFF7A0FFC8
:104DCC0028B129462046BDE83840FFF7CDB938BD9B
:104DDC0010B50446FFF7C0F9031FDBB2012B08D94D
:104DEC002046FFF78DFF20B12046BDE81040FFF7AD
:104DFC00C3B9002010BD000038B500232025438026
:104E0C00142304460380856005610649284600F09A
:104E1C003AF804496060284600F035F8E060204616
:104E2C0038BD00BFBC500D0030B50F4D2978BFF315
:104E3C005B8F11F0010487B013D12846FFF727F9D7
:104E4C0078B101A8FFF7D8FF01AA21460748FFF760
:104E5C0057FE2846FFF720F9054A0649034800F09B
:104E6C000BF8024807B030BDD8E70320DCE703207D
:104E7C0030E60320B54A0D000B460146184600F0FB
:104E8C0005B8FFF702B9FFF7FEB8000010B5054CE6
:104E9C0013462CB10A4601460220AFF3008010BD28
:104EAC002046FCE7000000000A44914200F1FF3369
:104EBC0000D1704710B511F8014B03F8014F914226
:104ECC00F9D110BD02440346934200D1704703F858
:104EDC00011BF9E738B50D4B1D68AB6B04467BB96C
:104EEC001820FFF7BDFA0A4A0A4BA863C0E9002351
:104EFC00094B83600B23838101220023C0E9042327
:104F0C00AB6B00221C615A6138BD00BFCCE503209D
:104F1C000E33CDAB34126DE6ECDE0500034613F810
:104F2C00012B002AFBD1181A013870471D400D00C7
:104F3C0059400D0081400D0085400D00000000001F
:104F4C000000000000000000FB440D00F1440D00C7
:104F5C00E7440D00DD440D00D1440D00C5440D00A7
:104F6C00E14B0D00E94B0D00B9440D00B1440D00AF
:104F7C00A7440D009D440D00194C0D00617070008C
:104F8C0025592D256D2D25645425483A254D3A2556
:104F9C0053257A0061736374696D6500000000002D
:104FAC0000000000D5470D00C5470D00C7470D0098
:104FBC000000000000000000B5480D001D490D0068
:104FCC00F3480D00B5450D00E5480D00B7480D0040
:104FDC00C7480D0017490D00D7480D00B1480D000A
:104FEC000000000000000000B9490D00254A0D002A
:104FFC00FD490D00B5450D00CD490D00E9490D00E9
:10500C00DB490D00F7490D00BB490D00BF490D00F0
:10501C000000000000000000B54A0D00FF4A0D0022
:10502C00D74A0D00B74A0D00DF4A0D00E74A0D00C4
:10503C00EF4A0D00F74A0D000000000000000000D0
:10504C00834B0D00794B0D006F4B0D00314B0D0058
:10505C0047460D00634B0D00E14B0D00E94B0D0075
:10506C00574B0D004F4B0D00454B0D003B4B0D00AE
:10507C00194C0D000000000000000000A14B0D00B9
:10508C00AB4B0D00B54B0D00BF4B0D00C94B0D00CC
:10509C00D54B0D00E14B0D00E94B0D00F14B0D0014
:1050AC00FD4B0D00054C0D000F4C0D00194C0D0067
:1050BC0000000000F9400D0005450D002D450D00C8
:1050CC008D450D0055460D0065460D0085460D00BD
:1050DC008D4B0D00F94C0D0000000000000000008D
:0450EC0000000000C0
:0450F00000000000BC
:1050F400A04F0D00D0E503200000000000000000D8
:10510400000000000000000000000000000000009B
:10511400000000000000000000000000000000008B
:10512400000000000000000000000000000000007B
:10513400000000000000000000000000000000006B
:10514400000000000000000000000000000000005B
:08515400000000000000000053
:10515C00FFFFFFFF00000102030405060708090A10
:10516C000B0C0D0E0F101112131415161718191A0B
:08517C001B1C1D1E1F20280052
:045184007856341213
:04000003D000401CCD
:00000001FF
